:100000000C9434000C9446000C9446000C9446006A
:100010000C9446000C9446000C9446000C94460048
:100020000C9446000C9446000C9448000C94460036
:100030000C9446000C9446000C9446000C94460028
:100040000C9446000C9446000C9446000C94460018
:100050000C9446000C9446000C9446000C94460008
:100060000C9446000C94460011241FBECFEFD8E03C
:10007000DEBFCDBF21E0A0E0B1E001C01D92A23003
:10008000B207E1F70E948D000C949D000C940000D3
:100090001F920F920FB60F9211248F939F93EF939D
:1000A000FF938091810086FF0FC0E1E8F0E080813E
:1000B0008F7B808380910001909101010196909344
:1000C0000101809300010EC0E1E8F0E080818064CE
:1000D000808380910001909101010196909301012C
:1000E000809300018091000190910101039764F0D9
:1000F000299A10920101109200018FE39FE101976C
:10010000F1F700C000002998FF91EF919F918F9126
:100110000F900FBE0F901F9018958EEF84B989EF46
:1001200085B9109285001092840085E48093810047
:0E01300080E280936F007894FFCFF894FFCFA9
:00000001FF
